:020000040000FA
:100000002500450BFF0FFF0FFF0FFF0FFF0FFF0F27
:100010002308230823082308230823082308230888
:100020004D0855084C08540849084D084F08440825
:10003000560831082E08340820082008420879089C
:100040004D087208200842086F086E0867086F089C
:100050002008200861086E0864082008200820088D
:1000600020085308740865087608650848082008C1
:100070002308230823082308230823082308230828
:10008000B8021807460A14023200000813023200B0
:1000900000080A0C4C0A320C2A00C60C2B0006077A
:1000A0007000EB024F0A66077100EA024D0A000871
:1000B0001A06600A0000E90C0600E90C26006D0A29
:1000C000ED0C0600E90C26006D0A1A067A0A0000FB
:1000D000EB0C0600F90C26006D0A12022B00020C34
:1000E0002A000607700066077100EA02710AEB0237
:1000F0006F0A0008ED0C060012022B00FB0C4607ED
:10010000F90C260000000607700066077100FB0C62
:100110004607F90C260000000000EB027E0A0000F2
:10012000FB0C4607F90C26000000FB0C4607F90CF7
:10013000260000000008480C4C09040C28000D02A1
:10014000B5092C006C02090C2900A90A2C0303072D
:10015000AB0A6509AD0A58090000E902A60A580968
:100160005809AD02E8029F0A0008E201530843085B
:1001700045084508530843084508490853084308FB
:100180004508410878004B096606CF0AFA0C2E0094
:100190006606CF0A4909EE02C80A4B09CD0A120CBD
:1001A00027004B09E702D10A7A00190C2E00140C23
:1001B0002F004606DE0AEF02D90AED0A140C2F00C2
:1001C0004607E50AEF02E00AED0AEE02D70A1A0531
:1001D000E90C2600ED0C0600F10AE90C2600E90CFA
:1001E0000600110510059D0C4C099D0C4C091602CA
:1001F0002E00030C2F006D009B091107470B100701
:10020000070BEF02FC0A4009EE02F90A170B17026E
:100210002E0010056D00030C2F009B091107470BE2
:10022000EF020D0B40091007070BEE020A0B6D00E1
:10023000030C2F009B091007230B1107470BEF023C
:100240001A0B4009170BFF0C06006607470BA607A1
:10025000250BFF0C4C09FF0C4C096607470BA60643
:100260002D0B6607470B15022E001105780040097B
:100270006D00030C2F009B091107470BA606230BEB
:10028000EF023B0BEE02370B230B820C0200FF0C3C
:100290000600280C3500DD0C32003300D60C34008B
:1002A000120C3600030C3700C20AFF0FFF0FFF0FBE
:1002B000FF0FFF0FFF0FFF0FFF0FFF0FFF0FFF0FCE
:1002C000FF0FFF0FFF0FFF0FFF0FFF0FFF0FFF0FBE
:1002D000FF0FFF0FFF0FFF0FFF0FFF0FFF0FFF0FAE
:1002E000FF0FFF0FFF0FFF0FFF0FFF0FFF0FFF0F9E
:1002F000FF0FFF0FFF0FFF0FFF0FFF0FFF0FFF0F8E
:10030000FF0FFF0FFF0FFF0FFF0FFF0FFF0FFF0F7D
:10031000FF0FFF0FFF0FFF0FFF0FFF0FFF0FFF0F6D
:10032000FF0FFF0FFF0FFF0FFF0FFF0FFF0FFF0F5D
:10033000FF0FFF0FFF0FFF0FFF0FFF0FFF0FFF0F4D
:10034000FF0FFF0FFF0FFF0FFF0FFF0FFF0FFF0F3D
:10035000FF0FFF0FFF0FFF0FFF0FFF0FFF0FFF0F2D
:10036000FF0FFF0FFF0FFF0FFF0FFF0FFF0FFF0F1D
:10037000FF0FFF0FFF0FFF0FFF0FFF0FFF0FFF0F0D
:10038000FF0FFF0FFF0FFF0FFF0FFF0FFF0FFF0FFD
:10039000FF0FFF0FFF0FFF0FFF0FFF0FFF0FFF0FED
:1003A000FF0FFF0FFF0FFF0FFF0FFF0FFF0FFF0FDD
:1003B000FF0FFF0FFF0FFF0FFF0FFF0FFF0FFF0FCD
:1003C000FF0FFF0FFF0FFF0FFF0FFF0FFF0FFF0FBD
:1003D000FF0FFF0FFF0FFF0FFF0FFF0FFF0FFF0FAD
:1003E000FF0FFF0FFF0FFF0FFF0FFF0FFF0FFF0F9D
:0E03F000FF0FFF0FFF0FFF0FFF0FFF0FFF0F9D
:021FFE00EA0FE8
:08040000FF0FFF0FFF0FFF0FBC
:0203FE00640C8D
:00000001FF
